:020000040800F2
:100000009004002001010008170E0008AD0C000844
:10001000150E00086D010008F51100080000000031
:100020000000000000000000000000003B0E00087F
:100030006F01000800000000390E00083D0E0008A6
:100040001B0100081B0100081B0100081B01000820
:100050001B0100081B0100081B0100081B01000810
:100060001B0100081B0100081B0100081B01000800
:100070001B0100081B0100081B0100081B010008F0
:100080001B0100081B0100081B0100081B010008E0
:100090001B0100081B0100081B0100081B010008D0
:1000A0001B0100081B0100081B0100081B010008C0
:1000B0001B0100081B0100081B0100081B010008B0
:1000C0001B0100081B0100081B0100081B010008A0
:1000D0001B0100081B0100081B0100081B01000890
:1000E0001B0100081B0100081B010008DFF80CD0F1
:1000F00000F02AF80048004715120008900400207C
:100100000648804706480047FEE7FEE7FEE7FEE7B1
:10011000FEE7FEE7FEE7FEE7FEE7FEE78D0E0008DE
:10012000ED000008D2B201E000F8012B491EFBD21D
:1001300070470022F6E710B513460A4604461946F2
:10014000FFF7F0FF204610BD064C074D06E0E068C3
:1001500040F0010394E8070098471034AC42F6D30E
:10016000FFF7C8FF4412000864120008FEE770475A
:10017000704700002DE9F84FDFF890A100220AF146
:10018000040B144601274FF00F090BF1040E00BFBA
:100190000B6807FA04F52B40AB4274D1DFF870C14D
:1001A0004E68A6EB0C0866452BD00DDC032E34D030
:1001B00005DC36B3012E19D0022E2FD11BE0112EF3
:1001C00016D0122E2AD119E0B8F5881F19D006DCF6
:1001D000B8F5803F15D0B8F5801F1FD111E0B8F5F4
:1001E000001F0ED0B8F5041F18D10AE0CA6815E048
:1001F000CA68121D12E0CA6808320FE0CA680C32E1
:100200000CE08A682AB1012A4FF0080203D0456148
:1002100004E0042202E0056100E00022FF2B01D887
:10022000064601E000F104064FEA840501D9A5F174
:100230002005D6F800C009FA05F82CEA080C02FAE5
:1002400005F54CEA050CC6F800C04D68ED0057D521
:10025000304DAE6946F00106AE61AD6924F003068B
:1002600005F0010500952C4D06EB050CDCF8085057
:10027000A6074FEA167809FA08F6B543274EB042AA
:1002800002D1002610E03BE0254EB04201D101260C
:100290000AE0244EB04201D1022605E0224EB042CF
:1002A00001D1032600E0042606FA08F62E43CCF816
:1002B00008604D68DAF80060ED03554601D51E432D
:1002C00000E09E432E604D68DBF80060AD035D46A4
:1002D00001D51E4300E09E432E604D68DEF80060AD
:1002E000ED02754601D51E4300E09E432E604D6829
:1002F000AD020E4D2E6801D51E4300E09E432E60D8
:10030000641C102CFFF444AFBDE8F88F00040140DA
:1003100000001110001002400000014000080140E0
:10032000000C014000100140001401400C04014089
:100330000AB1016170470904FBE7000001488068C9
:1003400070470000000000200248816802781144D4
:100350008160704700000020074810B5016841F037
:1003600010010160032000F067F8002000F006F89B
:1003700000F024F8002010BD0020024070B50D4DA3
:1003800004464FF47A712878B1FBF0F00A49096805
:10039000B1FBF0F000F0F0FA48B9102C07D20022BF
:1003A0002146501E00F028F800206C6070BD01202E
:1003B00070BD0000000000200C0000200C4808B5B3
:1003C000816941F001018161816901F001010091C0
:1003D000C16941F08051C161C06900F08050009056
:1003E0000448416821F0E06141F00071416008BDBE
:1003F0000010024000000140F0B40E4B1B680C4698
:10040000C3F30223C3F10705042D00D90425191DE8
:10041000072901D2002300E0DB1E012606FA05F1C0
:10042000491E214099409E40761E16403143F0BC43
:1004300000F0F2BC0CED00E0064900F0070208688D
:100440004FF6FF03184040EA0220034A10430860B9
:10045000704700000CED00E00000FA052DE9F047C0
:10046000DFF8548105460E46D8F8000000F007007A
:10047000B0420CD2D8F8001021F007013143C8F87F
:100480000010D8F8000000F00700B0426FD12868D3
:100490004A4C810712D5400703D5606840F4E060FC
:1004A00060602878000703D5606840F460506060A1
:1004B0006068A96820F0F000084360602878C007F1
:1004C00044D06868012816D02168022816D0890710
:1004D00000294CDA616821F0030101436160FFF7F4
:1004E0002DFF6968074641F2883001290ED00229A4
:1004F000814618D026E021688903E9E78901E7E70A
:10050000FFF71CFFC11B494501D918E0814660680F
:10051000C0F381000128F3D118E000BFFFF70EFF00
:10052000C11B49450BD86068C0F381000228F5D192
:100530000CE000BFFFF702FFC11B494502D90320B1
:10054000BDE8F087606810F00C0FF3D1D8F8001008
:10055000404601F00701B1420BD9016821F00701C3
:1005600031430160006800F00700B04201D0012073
:10057000E6E72878400705D56068E96820F4E06080
:10058000084360602878000706D56068296920F470
:10059000605040EAC100606000F036F86168084AC7
:1005A000C1F30311515CC840064908600020FFF701
:1005B000E5FE0020C4E700000020024000100240D9
:1005C0002A1200080C000020044805490068496808
:1005D000044AC1F30221515CC84070470C0000205E
:1005E000001002403A1200080448054900684968B2
:1005F000044AC1F3C221515CC84070470C0000207E
:10060000001002403A12000812A185B00FC98DE80F
:100610000F0014A0144A006804905168134801F0B8
:100620000C03042B10D0082B0ED1C1F38343C90354
:100630001DF803000AD5516804AAC1F34041515C7A
:100640000A4A5043B0FBF1F005B0704708494843EF
:10065000FAE7000002030405060708090A0B0C0D5F
:100660000E0F1010010200000010024000127A006C
:1006700000093D002DE9F84F04460078B94DC00748
:1006800048D06868C0F38100012807D06868C0F3CB
:100690008100022809D16868C00306D52868800354
:1006A00038D5606800286FD034E06068B0F5803FCE
:1006B0000BD010B1B0F5A02F11D0286820F48030F5
:1006C0002860286820F4802002E0286840F4803008
:1006D0002860606888B1FFF731FE064609E02868A7
:1006E00040F480202860F0E7FFF728FE801B642894
:1006F00075D828688003F7D50CE0FFF71FFE064683
:1007000005E000BFFFF71AFE801B6428F0D82868B8
:100710008003F7D42078944E80074FF001094FF002
:1007200000083BD5686810F00C0F07D06868C0F36C
:100730008100022809D16868C00306D428688007B0
:1007400014D5206901281FD110E02069B0B1C6F886
:100750000090FFF7F3FD074605E000BFFFF7EEFD51
:10076000C01B0228C4D828688007F7D528686169AB
:1007700020F0F80040EAC10028600FE0C6F80080D1
:10078000FFF7DCFD074606E0E9E000BFFFF7D6FD16
:10079000C01B022823D828688007F7D420780007D8
:1007A0002CD57248A169D9B1C0F80090FFF7C6FDF9
:1007B000074604E0FFF7C2FDC01B02280FD8686A95
:1007C0008007F7D56A484FF4FA510068B0FBF1F0A2
:1007D000009000BF0098411E0091FAD20EE080E028
:1007E000C0F80080FFF7AAFD074604E0FFF7A6FD6A
:1007F000C01B022875D8686A8007F7D420784007A4
:1008000060D5E8690027C00008D4E86940F080504E
:10081000E861E869012700F08050009055480168C0
:10082000C90513D40168834641F480710160FFF764
:1008300085FD824606E000BFFFF780FDA0EB0A00C1
:1008400064284ED8DBF80000C005F5D5E068012823
:100850000AD008B1052813D0286A20F001002862C8
:10086000286A20F0040002E0286A40F001002862B3
:10087000E06841F2883B98B1FFF760FD82460BE0EB
:10088000286A40F004002862EEE700BFFFF756FD3B
:10089000A0EB0A0159455AD8286A8007F6D50CE022
:1008A000FFF74CFD824605E0FFF748FDA0EB0A018B
:1008B00059454CD8286A8007F6D41FB1E86920F062
:1008C0008050E861E06988B36968C1F38101022959
:1008D00045D00228C6F8608004D0FFF72FFD0446FB
:1008E00038E034E0FFF72AFD074604E0FFF726FD75
:1008F000C01B02282BD828688001F7D4206AB0F5E5
:10090000803F05D16868A16820F400300843686022
:10091000D4E908010843696821F474110843686048
:10092000C6F86090FFF70AFD044606E015E000BF38
:10093000FFF704FD001B022809D828688001F7D5BD
:100940000BE000BFFFF7FAFC001B022802D90320CE
:10095000BDE8F88F28688001F4D40020F8E7012072
:10096000F6E70000001002400000424280044242CC
:100970000C0000200070004010B5401EB0F1807FD8
:1009800001D3012010BD4FF0E02460610F216017FA
:1009900000F042FA0020A06107202061002010BD75
:1009A00010B590F83C20012A25D0012280F83C2087
:1009B000CA688C6822F4407222434C6822F4806238
:1009C00022430C6822F4006222430C6922F4805214
:1009D00022434C6922F4005222438C6922F4804263
:1009E000224322F40041026800232143516480F82D
:1009F0003C30002010BD022010BD30B590F83C20E6
:100A0000012A20D0012280F83C20022380F83D30CA
:100A100003685C6824F070045C6003685C680D68BF
:100A20002C435C6003689C6824F080049C6003682D
:100A30009C6849680C439C6080F83D20002180F848
:100A40003C10084630BD022030BD000000B585B026
:100A50000021009101910291039100680B498842A5
:100A600012D10B48816941F00401816180696946B6
:100A700000F0040004904FF4E06000900220019028
:100A800003900448FFF776FB05B000BD002C014041
:100A9000001002400008014070B5044690F83C0088
:100AA0000D4601280DD0012684F83C60022084F810
:100AB0003D0042B1042A18D0082A2AD00C2A4DD170
:100AC00039E0022070BD206800F03AFA20688169A0
:100AD00041F0080181612068816921F00401816190
:100AE000206881692A69114311E0206800F050FAFA
:100AF0002068816941F4006181612068816921F485
:100B000080618161206881692A6941EA02218161ED
:100B100024E0206800F068FA2068C16941F008010B
:100B2000C1612068C16921F00401C1612068C16907
:100B30002A69114311E0206800F082FA2068C16937
:100B400041F40061C1612068C16921F48061C16123
:100B50002068C1692A6941EA0221C16184F83D60C7
:100B6000002084F83C0070BD10B5040003D094F858
:100B70003D0010B107E0012010BD002084F83C00CA
:100B8000204600F00DF8022084F83D00211D206869
:100B900000F0A0F9012084F83D00002010BD000005
:100BA00008B500680649884208D10648816941F4C1
:100BB00000618161806900F40060009008BD000060
:100BC000002C01400010024070B5040004D094F8DD
:100BD0003900002510B106E0012070BD84F83850BE
:100BE000204600F023F8242084F839002068C168EA
:100BF00021F40051C160204600F044FA20680169E8
:100C000021F4904101612068416921F02A0141618C
:100C10002068C16841F40051C160E563202084F878
:100C2000390084F83A00002070BD000030B585B06E
:100C300000240094019402940394006817498842A8
:100C40002AD11748816941F480418161816901F4A9
:100C500080410491816941F0080181618069114DF1
:100C600000F0080004904020009002200190032032
:100C7000039069462846FFF77DFA8020CDE90004FD
:100C8000694628460294FFF775FA0748416841F023
:100C9000E06141F00401416005B030BD0038014021
:100CA00000100240000C014000000140FEE700007F
:100CB00030B585B000200090019002900390164856
:100CC000816941F020018161816901F02001049175
:100CD000816941F008018161816901F00801049195
:100CE000816941F00401816180690C4D00F00400CC
:100CF0004FF470440490012221462846FFF718FB68
:100D000001210320CDE90210CDE9004169462846C2
:100D1000FFF730FA05B030BD00100240000C014072
:100D200010B590B000240E941C2168460F94FFF774
:100D300000FA1C2107A8FFF7FCF927482549C0E95C
:100D400000148460C460046144618461FFF70CFF97
:100D500008B1FFF70DFA0E940EA91F480F94FFF784
:100D60004CFE08B1FFF704FA6020CDE900040294BC
:100D70000394049405940022694617480694FFF7EB
:100D80008BFE08B1FFF7F4F9042269461248FFF719
:100D900083FE08B1FFF7ECF9082269460E48FFF719
:100DA0007BFE08B1FFF7E4F90794089409944FF427
:100DB00000500A94CDE90B4007A907480D94FFF7AE
:100DC000EFFD08B1FFF7D4F90348FFF73FFE10B07D
:100DD00010BD0000002C0140100000200C4810B590
:100DE0000A4901604FF416514160002181600C22D4
:100DF000C160C0E904128161C161FFF7E5FE00280E
:100E000003D0BDE81040FFF7B3B910BD0038014072
:100E100050000020FEE770470907090E002806DA97
:100E200000F00F0000F1E02080F8141D704700F181
:100E3000E02080F80014704770477047FFF784BACD
:100E400030B58FB028216846FFF773F914210AA83E
:100E5000FFF76FF901204FF4A02100248DE8130063
:100E600004900004CDE90804022507956846FFF7C1
:100E700001FC0F200A90CDE90B540D9400210AA823
:100E80000E94FFF7EBFA0FB030BD00000D4801687B
:100E900041F00101016041680B4A11404160016865
:100EA0000A4A11400160016821F480210160416813
:100EB00021F4FE0141604FF41F0181600449C00329
:100EC00008607047001002400000FFF8FFFFF6FEC8
:100ED00008ED00E0F0B50268164B174C174D4FF0C7
:100EE0008047984205D0B84203D0A04201D0A84222
:100EF00003D122F070064A683243984205D0B842C6
:100F000003D0A04201D0A84203D122F44074CA68A1
:100F1000224322F080044A69224302608A68C26246
:100F20000A688262984201D1096901630121416125
:100F3000F0BD0000002C014000040040000800400B
:100F400030B5026A22F001020262026A43688469D3
:100F500024F073050C682C4322F002058A682A43AA
:100F60000A4DA8420BD122F00805CA6823F4407349
:100F70002A434D6922F004021D438B692B434360D1
:100F8000846149684163026230BD0000002C014069
:100F900030B5026A22F010020262026A4368846974
:100FA0000D6824F4E64444EA05248D6822F020020A
:100FB00042EA05120B4DA8420ED1CD6822F0800204
:100FC00042EA05124D6923F4406343EA85038D69C3
:100FD00022F0400243EA85034360846149688163EB
:100FE000026230BD002C014030B5026A22F48072EA
:100FF0000262036A4268C46923F4007324F0730533
:101000000C682C438D6843EA05230C4DA8420ED191
:10101000CD6823F4006343EA05234D6922F440526E
:1010200042EA05128D6923F4806342EA05124260A8
:10103000C4614968C163036230BD0000002C0140F7
:1010400030B5026A22F480520262046A4268C369BF
:101050000D6823F4E64343EA05238D6824F4005425
:1010600044EA0534064DA84204D14D6922F4804279
:1010700042EA85124260C36149680164046230BD7E
:10108000002C01402DE9F041044600680169E26846
:1010900021F44051114301612169A068084361694D
:1010A00008432168CA6841F20C639A430243CA604C
:1010B00020684169A26921F44071114341614C49A2
:1010C00020686425322688423CD1FFF78DFA00EB78
:1010D000C00101EB001061688900B0FBF1F7FFF778
:1010E00083FA00EBC00101EB00106168B046890093
:1010F000B0FBF1F0B0FBF5F06FF01801484307EBDF
:10110000800106EB0110B0FBF5F000F0F006FFF7F0
:101110006BFA00EBC00101EB001061688900B0FBC5
:10112000F1F0B0FBF5F006EB0016FFF75DFA00EB0F
:10113000C00101EB001061688900B0FBF1F7FFF717
:1011400053FA3BE0FFF740FA00EBC00101EB00105F
:1011500061688900B0FBF1F7FFF736FA00EBC001D8
:1011600001EB00106168B0468900B0FBF1F0B0FB04
:10117000F5F06FF01801484307EB800106EB011012
:10118000B0FBF5F000F0F006FFF71EFA00EBC0012F
:1011900001EB001061688900B0FBF1F0B0FBF5F0E5
:1011A00006EB0016FFF710FA00EBC00101EB001090
:1011B00061688900B0FBF1F7FFF706FA00EBC001A8
:1011C00001EB001061688900B0FBF1F0B0FBF5F0B5
:1011D0006FF01801484307EB800108EB0110B0FBEA
:1011E000F5F0216800F00F0030448860BDE8F08120
:1011F00000380140FEE702E008C8121F08C1002ABB
:10120000FAD170477047002001E001C1121F002A87
:10121000FBD17047FFF7A0F8FFF712FEFFF748FD7C
:10122000FFF77EFDFFF7DAFDFEE70000000000009B
:101230000000010203040607080900000000010283
:1012400003040000641200080000002010000000E9
:10125000F61100087412000810000020800400003D
:10126000061200080100000010000000000000004D
:0412700000A24A048A
:04000005080000ED02
:00000001FF
