:020000040800F2
:10000000900400200101000867100008B50E0008E8
:10001000651000086D010008AD1500080000000023
:10002000000000000000000000000000A710000811
:100030006F01000800000000A5100008A9100008CA
:100040001B0100081B0100081B0100081B01000820
:100050001B0100081B0100081B0100081B01000810
:100060001B0100081B0100081B0100081B01000800
:100070001B0100081B0100081B0100081B010008F0
:100080001B0100081B0100081B0100081B010008E0
:100090001B0100081B0100081B0100081B010008D0
:1000A0001B0100081B0100081B0100081B010008C0
:1000B0001B0100081B0100081B0100081B010008B0
:1000C0001B0100081B0100081B0100081B010008A0
:1000D0001B010008A11500081B0100081B010008F6
:1000E0001B0100081B0100081B010008DFF80CD0F1
:1000F00000F02AF800480047CD15000890040020C1
:100100000648804706480047FEE7FEE7FEE7FEE7B1
:10011000FEE7FEE7FEE7FEE7FEE7FEE7F910000870
:10012000ED000008D2B201E000F8012B491EFBD21D
:1001300070470022F6E710B513460A4604461946F2
:10014000FFF7F0FF204610BD064C074D06E0E068C3
:1001500040F0010394E8070098471034AC42F6D30E
:10016000FFF7C8FF0016000820160008FEE77047DA
:100170007047000010B590F821100024022903D028
:100180000421816301243DE001680A6822F00E0227
:100190000A6001680A6822F001020A601A4A0168CE
:1001A000914201D1012121E0174A1432914201D13B
:1001B00010211BE0144A2832914201D1891515E023
:1001C000114A3C32914201D189140FE00E4A50325B
:1001D000914202D14FF4803108E00B4A64329142DF
:1001E00002D14FF4801101E04FF08071064A083AC5
:1001F0005160012180F82110002180F82010416B0E
:1002000001B18847204610BD080002402DE9F84F93
:10021000DFF890A100220AF1040B144601274FF0E9
:100220000F090BF1040E00BF0B6807FA04F52B4011
:10023000AB4274D1DFF870C14E68A6EB0C0866457E
:100240002BD00DDC032E34D005DC36B3012E19D0B3
:10025000022E2FD11BE0112E16D0122E2AD119E01A
:10026000B8F5881F19D006DCB8F5803F15D0B8F571
:10027000801F1FD111E0B8F5001F0ED0B8F5041F84
:1002800018D10AE0CA6815E0CA68121D12E0CA68EF
:1002900008320FE0CA680C320CE08A682AB1012AE1
:1002A0004FF0080203D0456104E0042202E005613A
:1002B00000E00022FF2B01D8064601E000F1040611
:1002C0004FEA840501D9A5F12005D6F800C009FA46
:1002D00005F82CEA080C02FA05F54CEA050CC6F8FC
:1002E00000C04D68ED0057D5304DAE6946F00106AF
:1002F000AE61AD6924F0030605F0010500952C4DB3
:1003000006EB050CDCF80850A6074FEA167809FA48
:1003100008F6B543274EB04202D1002610E03BE07C
:10032000254EB04201D101260AE0244EB04201D14F
:10033000022605E0224EB04201D1032600E0042649
:1003400006FA08F62E43CCF808604D68DAF800602B
:10035000ED03554601D51E4300E09E432E604D68D7
:10036000DBF80060AD035D4601D51E4300E09E430F
:100370002E604D68DEF80060ED02754601D51E4323
:1003800000E09E432E604D68AD020E4D2E6801D5F3
:100390001E4300E09E432E60641C102CFFF444AF0B
:1003A000BDE8F88F00040140000011100010024069
:1003B0000000014000080140000C01400010014015
:1003C000001401400C0401400AB1016170470904A6
:1003D000FBE7000001488068704700000000002033
:1003E0000248816802781144816070470000002053
:1003F000074810B5016841F010010160032000F0CA
:1004000073F8002000F006F800F024F8002010BD7A
:100410000020024070B50D4D04464FF47A712878E3
:10042000B1FBF0F00A490968B1FBF0F000F0FCFA0A
:1004300048B9102C07D200222146501E00F034F893
:1004400000206C6070BD012070BD00000000002025
:100450000C0000200C4808B5816941F00101816160
:10046000816901F001010091C16941F08051C161D0
:10047000C06900F0805000900448416821F0E061BC
:1004800041F00071416008BD0010024000000140D1
:1004900000F01F02012191404009800000F1E0209E
:1004A000C0F8001170470000F0B40E4B1B680C46FA
:1004B000C3F30223C3F10705042D00D90425191D38
:1004C000072901D2002300E0DB1E012606FA05F110
:1004D000491E214099409E40761E16403143F0BC93
:1004E00000F0C2BD0CED00E0064900F0070208680C
:1004F0004FF6FF03184040EA0220034A1043086009
:10050000704700000CED00E00000FA052DE9F0470F
:10051000DFF8548105460E46D8F8000000F00700C9
:10052000B0420CD2D8F8001021F007013143C8F8CE
:100530000010D8F8000000F00700B0426FD1286822
:100540004A4C810712D5400703D5606840F4E0604B
:1005500060602878000703D5606840F460506060F0
:100560006068A96820F0F000084360602878C00740
:1005700044D06868012816D02168022816D089075F
:1005800000294CDA616821F0030101436160FFF743
:1005900021FF6968074641F2883001290ED00229FF
:1005A000814618D026E021688903E9E78901E7E759
:1005B000FFF710FFC11B494501D918E0814660686B
:1005C000C0F381000128F3D118E000BFFFF702FF5C
:1005D000C11B49450BD86068C0F381000228F5D1E2
:1005E0000CE000BFFFF7F6FEC11B494502D903200E
:1005F000BDE8F087606810F00C0FF3D1D8F8001058
:10060000404601F00701B1420BD9016821F0070112
:1006100031430160006800F00700B04201D00120C2
:10062000E6E72878400705D56068E96820F4E060CF
:10063000084360602878000706D56068296920F4BF
:10064000605040EAC100606000F036F86168084A16
:10065000C1F30311515CC840064908600020FFF750
:10066000D9FE0020C4E70000002002400010024034
:10067000E61500080C000020044805490068496898
:10068000044AC1F30221515CC84070470C000020AD
:1006900000100240F6150008044805490068496842
:1006A000044AC1F3C221515CC84070470C000020CD
:1006B00000100240F615000812A185B00FC98DE8A0
:1006C0000F0014A0144A006804905168134801F008
:1006D0000C03042B10D0082B0ED1C1F38343C903A4
:1006E0001DF803000AD5516804AAC1F34041515CCA
:1006F0000A4A5043B0FBF1F005B07047084948433F
:10070000FAE7000002030405060708090A0B0C0DAE
:100710000E0F1010010200000010024000127A00BB
:1007200000093D002DE9F84F04460078B94DC00797
:1007300048D06868C0F38100012807D06868C0F31A
:100740008100022809D16868C00306D528688003A3
:1007500038D5606800286FD034E06068B0F5803F1D
:100760000BD010B1B0F5A02F11D0286820F4803044
:100770002860286820F4802002E0286840F4803057
:100780002860606888B1FFF725FE064609E0286802
:1007900040F480202860F0E7FFF71CFE801B6428EF
:1007A00075D828688003F7D50CE0FFF713FE0646DE
:1007B00005E000BFFFF70EFE801B6428F0D8286814
:1007C0008003F7D42078944E80074FF001094FF052
:1007D00000083BD5686810F00C0F07D06868C0F3BC
:1007E0008100022809D16868C00306D42868800700
:1007F00014D5206901281FD110E02069B0B1C6F8D6
:100800000090FFF7E7FD074605E000BFFFF7E2FDB8
:10081000C01B0228C4D828688007F7D528686169FA
:1008200020F0F80040EAC10028600FE0C6F8008020
:10083000FFF7D0FD074606E0E9E000BFFFF7CAFD7D
:10084000C01B022823D828688007F7D42078000727
:100850002CD57248A169D9B1C0F80090FFF7BAFD54
:10086000074604E0FFF7B6FDC01B02280FD8686AF0
:100870008007F7D56A484FF4FA510068B0FBF1F0F1
:10088000009000BF0098411E0091FAD20EE080E077
:10089000C0F80080FFF79EFD074604E0FFF79AFDD1
:1008A000C01B022875D8686A8007F7D420784007F3
:1008B00060D5E8690027C00008D4E86940F080509E
:1008C000E861E869012700F0805000905548016810
:1008D000C90513D40168834641F480710160FFF7B4
:1008E00079FD824606E000BFFFF774FDA0EB0A0029
:1008F00064284ED8DBF80000C005F5D5E068012873
:100900000AD008B1052813D0286A20F00100286217
:10091000286A20F0040002E0286A40F00100286202
:10092000E06841F2883B98B1FFF754FD82460BE046
:10093000286A40F004002862EEE700BFFFF74AFD96
:10094000A0EB0A0159455AD8286A8007F6D50CE071
:10095000FFF740FD824605E0FFF73CFDA0EB0A01F2
:1009600059454CD8286A8007F6D41FB1E86920F0B1
:100970008050E861E06988B36968C1F381010229A8
:1009800045D00228C6F8608004D0FFF723FD044656
:1009900038E034E0FFF71EFD074604E0FFF71AFDDC
:1009A000C01B02282BD828688001F7D4206AB0F534
:1009B000803F05D16868A16820F400300843686072
:1009C000D4E908010843696821F474110843686098
:1009D000C6F86090FFF7FEFC044606E015E000BF95
:1009E000FFF7F8FC001B022809D828688001F7D51A
:1009F0000BE000BFFFF7EEFC001B022802D903202A
:100A0000BDE8F88F28688001F4D40020F8E70120C1
:100A1000F6E700000010024000004242800442421B
:100A20000C0000200070004010B5401EB0F1807F27
:100A300001D3012010BD4FF0E02460610F21601749
:100A400000F012FB0020A06107202061002010BDF3
:100A500010B590F83C20012A25D0012280F83C20D6
:100A6000CA688C6822F4407222434C6822F4806287
:100A700022430C6822F4006222430C6922F4805263
:100A800022434C6922F4005222438C6922F48042B2
:100A9000224322F40041026800232143516480F87C
:100AA0003C30002010BD022010BD30B590F83C2035
:100AB000012A20D0012280F83C20022380F83D301A
:100AC00003685C6824F070045C6003685C680D680F
:100AD0002C435C6003689C6824F080049C6003687D
:100AE0009C6849680C439C6080F83D20002180F898
:100AF0003C10084630BD022030BD000000B585B076
:100B00000021009101910291039100680B498842F4
:100B100012D10B48816941F0040181618069694605
:100B200000F0040004904FF4407000900220019007
:100B300003900448FFF76AFB05B000BD002C01409C
:100B4000001002400008014070B5044690F83C00D7
:100B50000D4601280DD0012684F83C60022084F85F
:100B60003D0042B1042A18D0082A2AD00C2A4DD1BF
:100B700039E0022070BD206800F024FB2068816904
:100B800041F0080181612068816921F004018161DF
:100B9000206881692A69114311E0206800F03AFB5E
:100BA0002068816941F4006181612068816921F4D4
:100BB00080618161206881692A6941EA022181613D
:100BC00024E0206800F052FB2068C16941F0080170
:100BD000C1612068C16921F00401C1612068C16957
:100BE0002A69114311E0206800F06CFB2068C1699C
:100BF00041F40061C1612068C16921F48061C16173
:100C00002068C1692A6941EA0221C16184F83D6016
:100C1000002084F83C0070BD10B5040003D094F8A7
:100C20003D0010B107E0012010BD002084F83C0019
:100C3000204600F00DF8022084F83D00211D2068B8
:100C400000F07EFA012084F83D00002010BD000075
:100C500008B500680649884208D10648816941F410
:100C600000618161806900F40060009008BD0000AF
:100C7000002C01400010024010B50446006801221B
:100C800000F094FA07492068884203D1416C41F48E
:100C9000004141642068016841F0010101600020C9
:100CA00010BD0000002C01407047000070B50268C4
:100CB00004461068D168536910F00F0F50D003F04C
:100CC000010501F4907635435DD0C20705D0CA0511
:100CD00003D5E26B42F00102E263420705D5DA0771
:100CE00003D0E26B42F00202E263820705D5DA0725
:100CF00003D0E26B42F00402E263020705D5DA0793
:100D000003D0E26B42F00802E263E26B002A33D0C8
:100D1000800604D5880602D5204600F00BFB20682B
:100D20004069E16BC0F38010090700D428B3204666
:100D300000F0F2FA2068416949061AD5416921F0AC
:100D400040014161606BA0B11B494163606BFFF7DB
:100D500011FA002810D0606B416BBDE87040084765
:100D6000830610D58B060ED52046BDE8704000F0F6
:100D7000E1BA2046FFF798FF70BD2046FFF794FFC9
:100D80000020E06370BD030606D50B0604D520469F
:100D9000BDE8704000F0D2BB4006F3D54806F1D55F
:100DA000D168204621F04001D160202184F839101B
:100DB00000F07FF870BD00000913000870B5040052
:100DC00004D094F83900002510B106E0012070BD70
:100DD00084F83850204600F023F8242084F83900A5
:100DE0002068C16821F40051C160204600F0EEFA8D
:100DF0002068016921F4904101612068416921F076
:100E00002A0141612068C16841F40051C160E56375
:100E1000202084F8390084F83A00002070BD0000DA
:100E200030B585B0002400940194029403940068C6
:100E30001B49884232D11B48816941F4804181615C
:100E4000816901F480410491816941F00801816167
:100E50008069154D00F008000490402000900220A9
:100E600001900320039069462846FFF7CFF98020C0
:100E7000CDE90004694628460294FFF7C7F90B48FC
:100E8000416841F0E06141F00401416000221146F7
:100E90002520FFF709FB2520FFF7FAFA05B030BD42
:100EA0000038014000100240000C014000000140E9
:100EB00070477047FEE700002DE9F04385B000253C
:100EC00029480095019502950395816941F010012B
:100ED0008161816901F010010491816941F0200173
:100EE0008161816901F020010491816941F004016F
:100EF0008161816901F004010491816941F0080177
:100F000081618069DFF8648000F008004FF40054CC
:100F10000490002221464046FFF756FADFF8509031
:100F20004FF47047012239464846FFF74DFA0094C6
:100F300001240326CDE90246694640460194FFF7A5
:100F400065F97820CDE9000569460A480295FFF762
:100F50005DF9CDE90074CDE9024669464846FFF7E0
:100F600055F905B0BDE8F0830010024000100140C3
:100F7000000C01400008014010B590B000240E9410
:100F80001C2168460F94FFF7D4F81C2107A8FFF72F
:100F9000D0F82548234901604FF42071C0E90114BD
:100FA0004FF47A71C0E9031444618461FFF734FEA1
:100FB00008B1FFF7DDF80E940EA91B480F94FFF758
:100FC00074FD08B1FFF7D4F86020CDE90004029465
:100FD0000394049405940022694613480694FFF78D
:100FE000B3FD08B1FFF7C4F8042269460E48FFF7C5
:100FF000ABFD08B1FFF7BCF80794089409944FF4CF
:1010000000500A94CDE90B4007A907480D94FFF75B
:101010001FFD08B1FFF7ACF80348FFF76FFD10B0F4
:1010200010BD0000002C0140100000200C4810B53D
:101030000A4901604FF416514160002181600C2281
:10104000C160C0E904128161C161FFF7B7FE0028E9
:1010500003D0BDE81040FFF78BB810BD0038014049
:1010600050000020FEE770470907090E002806DA45
:1010700000F00F0000F1E02080F8141D704700F12F
:10108000E02080F80014704710B500210448FFF7F5
:10109000F3FDBDE8104004210148FFF7EDBD00005D
:1010A0001000002070477047FFF79AB930B58FB035
:1010B00028216846FFF73DF814210AA8FFF739F800
:1010C00001204FF4A02100248DE813000490022594
:1010D0000004CDE90750C00009906846FFF722FBE5
:1010E0000F200A90CDE90B540D9401210AA80E940B
:1010F000FFF70CFA0FB030BD0D48016841F0010157
:10110000016041680B4A1140416001680A4A114080
:101110000160016821F480210160416821F4FE0131
:1011200041604FF41F0181600449C00308607047AB
:10113000001002400000FFF8FFFFF6FE08ED00E09F
:10114000F0B50268164B174C174D4FF08047984288
:1011500005D0B84203D0A04201D0A84203D122F06A
:1011600070064A683243984205D0B84203D0A04284
:1011700001D0A84203D122F44074CA68224322F06D
:1011800080044A69224302608A68C2620A688262F5
:10119000984201D10969016301214161F0BD00005C
:1011A000002C0140000400400008004010B501235D
:1011B000046A8B409C430462036A8A4013430362BF
:1011C00010BD000030B5026A22F001020262026A1C
:1011D0004368846924F073050C682C4322F00205EF
:1011E0008A682A430A4DA8420BD122F00805CA6832
:1011F00023F440732A434D6922F004021D438B6996
:101200002B434360846149684163026230BD000042
:10121000002C014030B5026A22F010020262026A1C
:10122000436884690D6824F4E64444EA05248D6823
:1012300022F0200242EA05120B4DA8420ED1CD68E1
:1012400022F0800242EA05124D6923F4406343EA2A
:1012500085038D6922F0400243EA8503436084617F
:1012600049688163026230BD002C014030B5026ADA
:1012700022F480720262036A4268C46923F4007334
:1012800024F073050C682C438D6843EA05230C4D4C
:10129000A8420ED1CD6823F4006343EA05234D69CB
:1012A00022F4405242EA05128D6923F4806342EA37
:1012B00005124260C4614968C163036230BD000029
:1012C000002C014030B5026A22F480520262046AA6
:1012D0004268C3690D6823F4E64343EA05238D6839
:1012E00024F4005444EA0534064DA84204D14D6963
:1012F00022F4804242EA85124260C3614968016477
:10130000046230BD002C014010B5406A0021C18547
:10131000C184FFF7C9FC10BD0168CA6822F490724D
:10132000CA6001684A6922F001024A61202180F8FE
:101330003A10704710B590F83A10222901D00220D7
:1013400010BD8168B1F5805F11D001690029016885
:101350001FD0496801F07F03816A4A1C82620B70CA
:10136000C18D491E0904090CC18518D02BE0026902
:10137000816A002A0268526805D0D2B20A80816A66
:10138000491C8162ECE7C2F308020A80816A891C69
:10139000F7E74A68816A4B1C83620A70E0E70168DC
:1013A000CA6822F02002CA600168CA6822F480720A
:1013B000CA6001684A6922F001024A61202180F86E
:1013C0003A10FFF775FD002010BD00002DE9F04137
:1013D000044600680169E26821F44051114301614B
:1013E0002169A0680843616908432168CA6841F21D
:1013F0000C639A430243CA6020684169A26921F4E0
:101400004071114341614C4920686425322688426D
:101410003CD1FFF741F900EBC00101EB001061681E
:101420008900B0FBF1F7FFF737F900EBC00101EBE2
:1014300000106168B0468900B0FBF1F0B0FBF5F038
:101440006FF01801484307EB800106EB0110B0FB79
:10145000F5F000F0F006FFF71FF900EBC00101EB1B
:10146000001061688900B0FBF1F0B0FBF5F006EB0D
:101470000016FFF711F900EBC00101EB00106168E5
:101480008900B0FBF1F7FFF707F93BE0FFF7F4F84D
:1014900000EBC00101EB001061688900B0FBF1F7BF
:1014A000FFF7EAF800EBC00101EB00106168B046FD
:1014B0008900B0FBF1F0B0FBF5F06FF01801484384
:1014C00007EB800106EB0110B0FBF5F000F0F00631
:1014D000FFF7D2F800EBC00101EB00106168890052
:1014E000B0FBF1F0B0FBF5F006EB0016FFF7C4F827
:1014F00000EBC00101EB001061688900B0FBF1F75F
:10150000FFF7BAF800EBC00101EB00106168890039
:10151000B0FBF1F0B0FBF5F06FF01801484307EBBA
:10152000800108EB0110B0FBF5F0216800F00F001E
:1015300030448860BDE8F0810038014090F83910EF
:10154000212901D0022070478168B1F5805F016ACE
:101550000BD04A1C0262026809785160C18C491E96
:101560000904090CC1840ED017E009880268C1F390
:101570000801516001690029016A02D0491C016219
:10158000ECE7891CFBE70168CA6822F08002CA60A8
:101590000068C16841F04001C16000207047000050
:1015A0000148FFF783BB000050000020FEE702E087
:1015B00008C8121F08C1002AFAD1704770470020DE
:1015C00001E001C1121F002AFBD17047FEF710FF96
:1015D000FFF76CFDFFF770FCFFF7CEFCFFF726FD71
:1015E000FFF752FDFEE700000000000000000102CE
:1015F00003040607080900000000010203040000BC
:10160000201600080000002010000000AE150008A1
:10161000301600081000002080040000BE150008ED
:1016200001000000100000000000000000A24A04B9
:04000005080000ED02
:00000001FF
